:060000000A128A114129D9
:10000800F000030EF1000B1914200C1838208C187E
:100018003F200B184220710E8300F00E700E09006D
:1000280003138312E73081000B118801A01C1D28DF
:100038002028201C23282828201C2D283228A00A04
:100048003408850008163728A00A35088500881660
:100058003728A00A3608850008173728A00137086E
:1000680085008817372808000B308F00DC308E0099
:100078000C10A70A08008C10890A080003138312C1
:100088008701061EA10AA11C4A284D28211C5028B8
:100098005228211C552860280B10080007170B1040
:1000A80008008717061CA80A861CA803061DA90AAB
:1000B800861DA9030B10080007178717061CAA0A34
:1000C800861CAA03061DAB0A861DAB030B1008008D
:100200008A010A1482073F3406345B344F34663463
:0C0210006D347D3407347F346F343F348C
:100260008A010A148207203420341D3420341F34BC
:1002700020341F34203420341F3420341F342034E1
:10028000203452217B2182218F219D21AD21BC214F
:10029000C821031383123B224222492250225A22B0
:1002A000D4214B2903178316880189010313831670
:1002B000850106148614061586150616071387137E
:1002C000081288120813881309100313831285017A
:1002D000870188018901B401B501B601B701A00108
:1002E000A101A701A801A901AA012A14AB012B149D
:1002F0000230A5000800031383160F138F160F1684
:100300000F1408000313831681128111011181104B
:10031000011003138312E73081000B11080003134F
:1003200083121013901210169011901010140B30AD
:100330008F00DC308E000C1008000313831212159E
:100340001217921612169215921412100313831696
:10035000F430920091018C100800031383160C14E2
:100360008C14031383128B170B178B158B160B1121
:100370000C108C100B100800031383168113151436
:100380009514151595151516951215139513080046
:1003900003138316161496141615961516160313C2
:1003A000831206080B100800A11CD729DA29211C8A
:1003B000DD29DF29211CE129E329E521080010229C
:1003C0000800E5210800102208002808A200A30167
:1003D000A30A0A30A2020318E8292303AD000A3059
:1003E0002207AC0002222908A200A301A30A0A30B6
:1003F000A2020318F6292303AF000A302207AE0039
:10040000092208002C080021B4002D080021B500A5
:1004100008002E080021B6002F080021B7000800B0
:100420002A08A200A301A30A0A30A2020318132A71
:100430002303B3000A302207B2002D222B08A200AA
:10044000A301A30A0A30A2020318212A2303B10040
:100450000A302207B0003422080032080021B6001A
:1004600033080021B700080030080021B40031082B
:100470000021B50008003C302702031D592AA701BE
:10048000A80A08003C302802031D592AA801A90A1D
:10049000080018302902031D592AA901AA0A0800D8
:1004A0002B0830212A02031D592AAA012A14AB0A5B
:1004B0000800080062226D2278228F22A222B52233
:1004C000CB220800A81FE12AA8132813A816281673
:1004D000A8152811A81428140800A91FE12AA91397
:1004E0002913A9122916A9112915A91429140800DC
:1004F000AA1BE12A2A1BE12AAA1AE12A2A1AE12ABE
:10050000AA19E12A2A19E12AAA18E12A2A18E12AB5
:100510002B083021A400A4032408AA000800AB1B68
:10052000E12A2B1BE12AAB1AE12A2B1AE12AAB198B
:10053000E12A2B19E12AAB18E12A2B18E12A0C3009
:10054000AB000800AB1BE12A2B1BE12AAB1AE12A06
:100550002B1AE12AAB1DE12A2B1DE12AAB18E12A57
:100560002B1CE12AAB012B1408002B082502031DCC
:10057000E12AAA1BE12A2A1BE12AAA1AE12A2A1E39
:10058000E12AAA1DE12A2A1DE12AAA1CE12A2A1C25
:10059000E12AAA0108002B082502031DE12AAA1B53
:1005A000E12A2A1BE12AAA1AE12A2A1EE12AAA1D07
:1005B000E12A2A1DE12AAA1CE12A2A18E12AAA0115
:0405C0000800080027
:04400E00D420FF3F7C
:00000001FF
